:100000000C9434000C9449000C9449000C94490061
:100010000C9449000C9449000C9449000C9449003C
:100020000C9449000C9449000C9449000C9449002C
:100030000C9449000C9449000C9449000C9449001C
:100040000C9449000C9449000C9449000C9449000C
:100050000C9449000C9449000C9449000C944900FC
:100060000C9449000C94490011241FBECFEFD8E036
:10007000DEBFCDBF11E0A0E0B1E0EAE0F4E002C0F5
:1000800005900D92A431B107D9F70E946F000C942E
:1000900003020C94000090ED980F9A3008F4892F19
:1000A0009FEB980F963008F4875390E0089589E10C
:1000B00090E09093C5008093C4001092C00088E146
:1000C0008093C10086E08093C20008958CEF8AB9C6
:1000D0001BB88FEF87B918B884B915B80895CF93B6
:1000E000DF93CDB7DEB7CD54D1090FB6F894DEBF9C
:1000F0000FBECDBFFE0131968CE3DF011D928A95C4
:10010000E9F78BE0E0E0F1E0DE01DD9601900D9291
:100110008A95E1F786E0ECE0F1E0DE01A85BBF4FF5
:1001200001900D928A95E1F70E9466000E945700A7
:10013000612C00EC10E00F2EF6ECEF2EF12CF02DE0
:100140000F2EF4E87F2EF02D6894442447F868942D
:10015000552452F8FE01319620E030E0D8018C9110
:100160008823E4F7D7018C9180839FEF980FB2F337
:100170008A3011F4622E3EC12F5F3F4F31962C33EF
:10018000310561F737C13D912191321305C00196C8
:1001900086309105C1F703C0069709F02FC17BB8DF
:1001A000E1E1FAE73197F1F700C000001BB88DE3F9
:1001B00099E40197F1F700C000007BB8A1E1BAE72C
:1001C0001197F1F700C000001BB8C4CFBAE0B61514
:1001D00008F0C0CF9DAD89819813BCCFDE01DE96BB
:1001E000FE01329681E090E03D912191321305C0ED
:1001F00001968B309105C1F703C00B9709F0AACF88
:10020000862C912CEBE08E1691040CF4A3CF6E019A
:10021000FCE0CF0ED11C0F2EFBE0AF2EB12CF02D49
:10022000D6018C910E944B001C01F60181810E9435
:100230004B00910122953295307F3227207F322763
:10024000820F931F8736910509F449C04CF48C3412
:10025000910509F4A2C08235910509F48CC0AFC0A4
:100260008237910509F44DC08337910529F08C360A
:10027000910509F0A4C062C07BB88FE493EC0197AC
:10028000F1F700C000001BB8A7EAB1E61197F1F73B
:1002900000C000007BB8EFE4F3EC3197F1F700C049
:1002A00000001BB88FE493EC0197F1F700C0000049
:1002B0007BB8AFE4B3EC1197F1F700C000001BB8B6
:1002C000E7EAF1E63197F1F700C000007BB88FE470
:1002D00093EC0197F1F700C000001BB83BCF7BB84F
:1002E0009FE3A2E4BFE09150A040B040E1F700C01E
:1002F00000001BB8E7EAF1E63197F1F700C0000013
:1003000029CF4BB8FFE82FE581E0F1502040804035
:10031000E1F700C000001BB8A7EAB1E61197F1F7BA
:1003200000C000004BB8BFE8EFE5F1E0B150E0409D
:10033000F040E1F700C000001BB80CCF5BB82FE81D
:100340008FE591E0215080409040E1F700C000002F
:100350001BB8A7EAB1E61197F1F700C000005BB83F
:10036000BFE8EFE5F1E0B150E040F040E1F700C058
:1003700000001BB8EFCE4BB82FED83E994E021507D
:1003800080409040E1F700C000001BB8A7EAB1E64A
:100390001197F1F700C00000DDCE5BB8BFEDE3E9D7
:1003A000F4E0B150E040F040E1F700C000001BB8BD
:1003B00087EA91E60197F1F700C00000CBCE93E009
:1003C000A90EB11CA3E0CA0ED11C8A149B040CF028
:1003D00027CFC0CE29969FAD299789819813F6CE55
:1003E000A8E4B0E0AC0FBD1F1196FE01329681E08B
:1003F00090E0C9CEB5E0B61568F3E8CEEAE0E615C0
:0A04000008F4E8CEA7CEF894FFCF71
:10040A0030302C303030302C30303A00434F4E45AB
:04041A004354000047
:00000001FF
